:10098200537572616A2053696B63686900000032B3
:0E0992003042434531303639306900000000F4
:07093B001209A07F0A7E00F3
:10094200E4FDFCC3ED9FEC9E5015E4FBFA0BBB00EB
:0F095200010ABA04F8BBFBF50DBD00010C80E4EF
:010961002273
:1009A0008FA0C2B2C2B3D2B47F017E00120942C28C
:0209B000B4226F
:1009B2008FA0D2B2C2B3D2B47F017E00120942C26A
:0209C200B4225D
:100962007F3812093B7F0E12093B7F0112093B7F40
:10097200C01209A07F801209A07F0A7E00020942EC
:1008F60078087C007D007BFF7A0979827E007F0F75
:100906001208D078177C007D007BFF7A0979917EEA
:10091600007F0F1208D0900000120962AF8274089F
:100926002FF8E6FF600D1209B2A37F327E0012098E
:050936004280E980FE93
:030000000209C42E
:0C09C400787FE4F6D8FD7581250208F666
:10080000E709F608DFFA8046E709F208DFFA803EDA
:1008100088828C83E709F0A3DFFA8032E309F608C7
:10082000DFFA8078E309F208DFFA807088828C832F
:10083000E309F0A3DFFA806489828A83E0A3F608E3
:10084000DFFA805889828A83E0A3F208DFFA804CBD
:1008500080D280FA80C680D4806980F28033801094
:1008600080A680EA809A80A880DA80E280CA8033FD
:1008700089828A83ECFAE493A3C8C582C8CCC58375
:10088000CCF0A3C8C582C8CCC583CCDFE9DEE78045
:100890000D89828A83E493A3F608DFF9ECFAA9F0C4
:1008A000EDFB2289828A83ECFAE0A3C8C582C8CC1A
:1008B000C583CCF0A3C8C582C8CCC583CCDFEADE33
:1008C000E880DB89828A83E493A3F208DFF980CC95
:1008D00088F0EF60010E4E60C388F0ED2402B4048E
:1008E0000050B9F582EB2402B4040050AF23234535
:0608F00082239008507302
:00000001FF
