:10000000900076759000758000C2B0D2B1758920DD
:10001000758BCF758DCF7400D2B01133C2B030B1B3
:10002000FDD28E308FFDC28EC28F0420B1F3FC1141
:100030003880DD7E02DEFE227D64EC75F06484D2C1
:10004000901173F580116E116EE5F075F00A84C29F
:1000500090D2911173F580116E116EE5F0C291D2BC
:10006000921173F580116E116EC292DDCD227FFA6E
:10007000DFFE2293F4223F065B4F666D7D077F6FA4
:00000001FF
